{
  "contractName": "FNFT",
  "abi": [
    {
      "inputs": [],
      "stateMutability": "nonpayable",
      "type": "constructor"
    },
    {
      "anonymous": false,
      "inputs": [
        {
          "indexed": false,
          "internalType": "address",
          "name": "userAddress",
          "type": "address"
        },
        {
          "indexed": false,
          "internalType": "bytes32",
          "name": "sigR",
          "type": "bytes32"
        },
        {
          "indexed": false,
          "internalType": "bytes32",
          "name": "sigS",
          "type": "bytes32"
        },
        {
          "indexed": false,
          "internalType": "bytes32",
          "name": "c",
          "type": "bytes32"
        },
        {
          "indexed": false,
          "internalType": "bool",
          "name": "verified",
          "type": "bool"
        },
        {
          "indexed": false,
          "internalType": "address",
          "name": "calculatedAddress",
          "type": "address"
        }
      ],
      "name": "TransactionVerified",
      "type": "event"
    },
    {
      "inputs": [
        {
          "internalType": "address",
          "name": "ad",
          "type": "address"
        },
        {
          "internalType": "address",
          "name": "ad2",
          "type": "address"
        }
      ],
      "name": "getAddress2",
      "outputs": [
        {
          "internalType": "bool",
          "name": "",
          "type": "bool"
        }
      ],
      "stateMutability": "pure",
      "type": "function",
      "constant": true
    },
    {
      "inputs": [
        {
          "internalType": "uint160",
          "name": "ad",
          "type": "uint160"
        }
      ],
      "name": "getAddress3",
      "outputs": [
        {
          "internalType": "bool",
          "name": "",
          "type": "bool"
        }
      ],
      "stateMutability": "view",
      "type": "function",
      "constant": true
    },
    {
      "inputs": [
        {
          "internalType": "address",
          "name": "signer",
          "type": "address"
        },
        {
          "components": [
            {
              "internalType": "string",
              "name": "name",
              "type": "string"
            },
            {
              "internalType": "uint256",
              "name": "id",
              "type": "uint256"
            },
            {
              "internalType": "string",
              "name": "symbol",
              "type": "string"
            },
            {
              "internalType": "string",
              "name": "description",
              "type": "string"
            }
          ],
          "internalType": "struct FNFT.Fnft",
          "name": "fnft",
          "type": "tuple"
        },
        {
          "internalType": "bytes32",
          "name": "sigR",
          "type": "bytes32"
        },
        {
          "internalType": "bytes32",
          "name": "sigS",
          "type": "bytes32"
        },
        {
          "internalType": "uint8",
          "name": "sigV",
          "type": "uint8"
        }
      ],
      "name": "verify",
      "outputs": [
        {
          "internalType": "bool",
          "name": "",
          "type": "bool"
        }
      ],
      "stateMutability": "pure",
      "type": "function",
      "constant": true
    },
    {
      "inputs": [],
      "name": "getAddress",
      "outputs": [
        {
          "internalType": "address",
          "name": "",
          "type": "address"
        }
      ],
      "stateMutability": "view",
      "type": "function",
      "constant": true
    },
    {
      "inputs": [
        {
          "internalType": "address",
          "name": "signer",
          "type": "address"
        },
        {
          "internalType": "bytes32",
          "name": "sigR",
          "type": "bytes32"
        },
        {
          "internalType": "bytes32",
          "name": "sigS",
          "type": "bytes32"
        },
        {
          "internalType": "uint8",
          "name": "sigV",
          "type": "uint8"
        }
      ],
      "name": "verify2",
      "outputs": [
        {
          "internalType": "address",
          "name": "",
          "type": "address"
        }
      ],
      "stateMutability": "nonpayable",
      "type": "function"
    },
    {
      "inputs": [
        {
          "internalType": "uint256",
          "name": "nounce",
          "type": "uint256"
        }
      ],
      "name": "acquireFnft",
      "outputs": [],
      "stateMutability": "nonpayable",
      "type": "function"
    }
  ],
  "bytecode": "0x608060405234801561001057600080fd5b5033600260006101000a81548173ffffffffffffffffffffffffffffffffffffffff021916908373ffffffffffffffffffffffffffffffffffffffff160217905550610f47806100616000396000f3fe608060405234801561001057600080fd5b50600436106100625760003560e01c806325749c3e1461006757806338cc48311461009757806366f767d5146100b557806379f5c052146100d15780638ea1687614610101578063d3cd2ff614610131575b600080fd5b610081600480360381019061007c91906107e9565b610161565b60405161008e9190610b42565b60405180910390f35b61009f61019a565b6040516100ac9190610ac6565b60405180910390f35b6100cf60048036038101906100ca9190610940565b6101a2565b005b6100eb60048036038101906100e69190610825565b6101fa565b6040516100f89190610ac6565b60405180910390f35b61011b60048036038101906101169190610917565b6103a6565b6040516101289190610b42565b60405180910390f35b61014b60048036038101906101469190610888565b6103de565b6040516101589190610b42565b60405180910390f35b60008173ffffffffffffffffffffffffffffffffffffffff168373ffffffffffffffffffffffffffffffffffffffff1614905092915050565b600033905090565b60008082815260200190815260200160002060009054906101000a900460ff16156101cc57600080fd5b600160008083815260200190815260200160002060006101000a81548160ff02191690831515021790555050565b60008060405180608001604052806040518060400160405280600b81526020017f4672616374696f6e4e465400000000000000000000000000000000000000000081525081526020016103e881526020016040518060400160405280600481526020017f464e46540000000000000000000000000000000000000000000000000000000081525081526020016040518060400160405280601581526020017f5468652062657374204672616374696f6e20464e5400000000000000000000008152508152509050600060016102ce836104d8565b858888604051600081526020016040526040516102ee9493929190610c03565b6020604051602081039080840390855afa158015610310573d6000803e3d6000fd5b50505060206040510351905060008173ffffffffffffffffffffffffffffffffffffffff168873ffffffffffffffffffffffffffffffffffffffff161490507ffc0909ab5914f4a6d4f435175279aa5e3b4cb5e3c20a87f2ad649874455017f68861037a856104d8565b8989858760405161039096959493929190610ae1565b60405180910390a1819350505050949350505050565b60003373ffffffffffffffffffffffffffffffffffffffff168273ffffffffffffffffffffffffffffffffffffffff16149050919050565b6000806040518060400160405280601c81526020017f19457468657265756d205369676e6564204d6573736167653a0a3332000000008152509050600081610425886104d8565b604051602001610436929190610a50565b604051602081830303815290604052805190602001209050600181858888604051600081526020016040526040516104719493929190610c03565b6020604051602081039080840390855afa158015610493573d6000803e3d6000fd5b5050506020604051035173ffffffffffffffffffffffffffffffffffffffff168873ffffffffffffffffffffffffffffffffffffffff16149250505095945050505050565b6000604051806080016040528060528152602001610e83605291396040516020016105039190610a78565b604051602081830303815290604052805190602001207f6d9ba7bc2d7bda829800148e20a1cf7b28d4703658030804b590e7d70e12eba87fc89efdaa54c0f20c7adf612882df0950f5a951637e0307cdcb4c672f298b8bc66004730f990ef7ec160f01af7148b74cc8a86fe46c551e604051602001610586959493929190610b5d565b604051602081830303815290604052805190602001206040518060600160405280603d8152602001610ed5603d91396040516020016105c59190610a78565b604051602081830303815290604052805190602001208360000151805190602001208460200151856040015180519060200120866060015180519060200120604051602001610618959493929190610bb0565b6040516020818303038152906040528051906020012060405160200161063f929190610a8f565b604051602081830303815290604052805190602001209050919050565b600061066f61066a84610c6d565b610c48565b90508281526020810184848401111561068757600080fd5b610692848285610d29565b509392505050565b6000813590506106a981610e0f565b92915050565b6000813590506106be81610e26565b92915050565b600082601f8301126106d557600080fd5b81356106e584826020860161065c565b91505092915050565b60006080828403121561070057600080fd5b61070a6080610c48565b9050600082013567ffffffffffffffff81111561072657600080fd5b610732848285016106c4565b6000830152506020610746848285016107bf565b602083015250604082013567ffffffffffffffff81111561076657600080fd5b610772848285016106c4565b604083015250606082013567ffffffffffffffff81111561079257600080fd5b61079e848285016106c4565b60608301525092915050565b6000813590506107b981610e3d565b92915050565b6000813590506107ce81610e54565b92915050565b6000813590506107e381610e6b565b92915050565b600080604083850312156107fc57600080fd5b600061080a8582860161069a565b925050602061081b8582860161069a565b9150509250929050565b6000806000806080858703121561083b57600080fd5b60006108498782880161069a565b945050602061085a878288016106af565b935050604061086b878288016106af565b925050606061087c878288016107d4565b91505092959194509250565b600080600080600060a086880312156108a057600080fd5b60006108ae8882890161069a565b955050602086013567ffffffffffffffff8111156108cb57600080fd5b6108d7888289016106ee565b94505060406108e8888289016106af565b93505060606108f9888289016106af565b925050608061090a888289016107d4565b9150509295509295909350565b60006020828403121561092957600080fd5b6000610937848285016107aa565b91505092915050565b60006020828403121561095257600080fd5b6000610960848285016107bf565b91505092915050565b61097281610cca565b82525050565b61098181610cdc565b82525050565b61099081610ce8565b82525050565b6109a76109a282610ce8565b610d9c565b82525050565b60006109b882610c9e565b6109c28185610cb4565b93506109d2818560208601610d38565b80840191505092915050565b60006109e982610ca9565b6109f38185610cbf565b9350610a03818560208601610d38565b80840191505092915050565b6000610a1c600283610cbf565b9150610a2782610de6565b600282019050919050565b610a3b81610d12565b82525050565b610a4a81610d1c565b82525050565b6000610a5c82856109ad565b9150610a688284610996565b6020820191508190509392505050565b6000610a8482846109de565b915081905092915050565b6000610a9a82610a0f565b9150610aa68285610996565b602082019150610ab68284610996565b6020820191508190509392505050565b6000602082019050610adb6000830184610969565b92915050565b600060c082019050610af66000830189610969565b610b036020830188610987565b610b106040830187610987565b610b1d6060830186610987565b610b2a6080830185610978565b610b3760a0830184610969565b979650505050505050565b6000602082019050610b576000830184610978565b92915050565b600060a082019050610b726000830188610987565b610b7f6020830187610987565b610b8c6040830186610987565b610b996060830185610a32565b610ba66080830184610969565b9695505050505050565b600060a082019050610bc56000830188610987565b610bd26020830187610987565b610bdf6040830186610a32565b610bec6060830185610987565b610bf96080830184610987565b9695505050505050565b6000608082019050610c186000830187610987565b610c256020830186610a41565b610c326040830185610987565b610c3f6060830184610987565b95945050505050565b6000610c52610c63565b9050610c5e8282610d6b565b919050565b6000604051905090565b600067ffffffffffffffff821115610c8857610c87610da6565b5b610c9182610dd5565b9050602081019050919050565b600081519050919050565b600081519050919050565b600081905092915050565b600081905092915050565b6000610cd582610cf2565b9050919050565b60008115159050919050565b6000819050919050565b600073ffffffffffffffffffffffffffffffffffffffff82169050919050565b6000819050919050565b600060ff82169050919050565b82818337600083830152505050565b60005b83811015610d56578082015181840152602081019050610d3b565b83811115610d65576000848401525b50505050565b610d7482610dd5565b810181811067ffffffffffffffff82111715610d9357610d92610da6565b5b80604052505050565b6000819050919050565b7f4e487b7100000000000000000000000000000000000000000000000000000000600052604160045260246000fd5b6000601f19601f8301169050919050565b7f1901000000000000000000000000000000000000000000000000000000000000600082015250565b610e1881610cca565b8114610e2357600080fd5b50565b610e2f81610ce8565b8114610e3a57600080fd5b50565b610e4681610cf2565b8114610e5157600080fd5b50565b610e5d81610d12565b8114610e6857600080fd5b50565b610e7481610d1c565b8114610e7f57600080fd5b5056fe454950373132446f6d61696e28737472696e67206e616d652c737472696e672076657273696f6e2c75696e7432353620636861696e49642c6164647265737320766572696679696e67436f6e747261637429466e667428737472696e67206e616d652c75696e743235362069642c737472696e672073796d626f6c2c737472696e67206465736372697074696f6e29a2646970667358221220ca98f6aaaa8a7ff616d7b68be04d4133998fca4d3d1232a2bbcf87320243e61464736f6c63430008040033",
  "immutableReferences": {},
  "source": "// SPDX-License-Identifier: GPL-2.0-or-later OR MIT\npragma solidity >=0.7.0 <0.9.0;\n\ncontract FNFT {\n    uint256 constant chainId = 4; // for Goerli test net. Change it to suit your network.\n    mapping(uint256 => bool) private usedNounces;\n    mapping(uint256 => mapping(address => uint256)) owners; // fraction smart contract[user_address] -> amount in numbers of shares\n    address owner;\n    struct Fnft {\n        string name;\n        uint256 id;\n        string symbol;\n        string description;\n    }\n\n    constructor() {\n        owner = msg.sender;\n    }\n\n    string private constant FNFT_TYPE =\n        \"Fnft(string name,uint256 id,string symbol,string description)\";\n    string private constant EIP712_DOMAIN =\n        \"EIP712Domain(string name,string version,uint256 chainId,address verifyingContract)\";\n\n    bytes32 private constant EIP712_DOMAIN_TYPEHASH =\n        keccak256(abi.encodePacked(EIP712_DOMAIN));\n    bytes32 private constant FNFT_TYPEHASH =\n        keccak256(abi.encodePacked(FNFT_TYPE));\n\n    // type hashes. Hash of the following strings:\n    // 1. EIP712 Domain separator.\n    // 2. string describing identity type\n    // 3. string describing message type (enclosed identity type description included in the string)\n    address constant verifyingContract =\n        0x0F990Ef7eC160f01AF7148B74CC8a86FE46c551e;\n\n    bytes32 private constant DOMAIN_SEPARATOR =\n        keccak256(\n            abi.encode(\n                EIP712_DOMAIN_TYPEHASH,\n                keccak256(\"FractionGrid\"),\n                keccak256(\"1\"),\n                chainId,\n                verifyingContract\n            )\n        );\n\n    function getAddress2(address ad, address ad2) public pure returns (bool) {\n        return ad == ad2;\n    }\n\n    function getAddress3(uint160 ad) public view returns (bool) {\n        return address(ad) == msg.sender;\n    }\n\n    function hashFnft(Fnft memory fnft) private pure returns (bytes32) {\n        return\n            keccak256(\n                abi.encodePacked(\n                    \"\\x19\\x01\",\n                    DOMAIN_SEPARATOR,\n                    keccak256(\n                        abi.encode(\n                            FNFT_TYPEHASH,\n                            keccak256(bytes(fnft.name)),\n                            fnft.id,\n                            keccak256(bytes(fnft.symbol)),\n                            keccak256(bytes(fnft.description))\n                        )\n                    )\n                )\n            );\n    }\n\n    function verify(\n        address signer,\n        Fnft memory fnft,\n        //bytes32 hash,\n        bytes32 sigR,\n        bytes32 sigS,\n        uint8 sigV\n    ) public pure returns (bool) {\n        bytes memory prefix = \"\\x19Ethereum Signed Message:\\n32\";\n        bytes32 prefixedHash = keccak256(\n            abi.encodePacked(prefix, hashFnft(fnft))\n        );\n\n        return signer == ecrecover(prefixedHash, sigV, sigR, sigS);\n    }\n\n    function getAddress() public view returns (address) {\n        //bytes memory prefix = \"\\x19Ethereum Signed Message:\\n32\";\n        //bytes32 prefixedHash = keccak256(abi.encodePacked(prefix, hash));\n\n        return msg.sender;\n    }\n\n    event TransactionVerified(\n        address userAddress,\n        bytes32 sigR,\n        bytes32 sigS,\n        bytes32 c,\n        bool verified,\n        address calculatedAddress\n    );\n\n    function verify2(\n        address signer,\n        bytes32 sigR,\n        bytes32 sigS,\n        uint8 sigV\n    ) public returns (address) {\n        Fnft memory fnft = Fnft({\n            name: \"FractionNFT\",\n            id: 1000,\n            symbol: \"FNFT\",\n            description: \"The best Fraction FNT\"\n        });\n\n        address signerAddress = ecrecover(hashFnft(fnft), sigV, sigR, sigS);\n        bool res = signer == signerAddress;\n\n        emit TransactionVerified(\n            signer,\n            hashFnft(fnft),\n            sigR,\n            sigS,\n            res,\n            signerAddress\n        );\n        return signerAddress;\n    }\n\n    // functions to generate hash representation of the struct objects\n\n    function acquireFnft(\n        //uint256 tokenFractionAddress,\n        uint256 nounce //bytes memory signature\n    ) public {\n        require(!usedNounces[nounce]);\n        usedNounces[nounce] = true;\n    }\n}\n\nlibrary ECDSA {\n    /**\n     * @dev Returns the address that signed a hashed message (`hash`) with\n     * `signature`. This address can then be used for verification purposes.\n     *\n     * The `ecrecover` EVM opcode allows for malleable (non-unique) signatures:\n     * this function rejects them by requiring the `s` value to be in the lower\n     * half order, and the `v` value to be either 27 or 28.\n     *\n     * IMPORTANT: `hash` _must_ be the result of a hash operation for the\n     * verification to be secure: it is possible to craft signatures that\n     * recover to arbitrary addresses for non-hashed data. A safe way to ensure\n     * this is by receiving a hash of the original message (which may otherwise\n     * be too long), and then calling {toEthSignedMessageHash} on it.\n     *\n     * Documentation for signature generation:\n     * - with https://web3js.readthedocs.io/en/v1.3.4/web3-eth-accounts.html#sign[Web3.js]\n     * - with https://docs.ethers.io/v5/api/signer/#Signer-signMessage[ethers]\n     */\n    function recover(bytes32 hash, bytes memory signature)\n        internal\n        pure\n        returns (address)\n    {\n        // Check the signature length\n        // - case 65: r,s,v signature (standard)\n        // - case 64: r,vs signature (cf https://eips.ethereum.org/EIPS/eip-2098) _Available since v4.1._\n        if (signature.length == 65) {\n            bytes32 r;\n            bytes32 s;\n            uint8 v;\n            // ecrecover takes the signature parameters, and the only way to get them\n            // currently is to use assembly.\n            assembly {\n                r := mload(add(signature, 0x20))\n                s := mload(add(signature, 0x40))\n                v := byte(0, mload(add(signature, 0x60)))\n            }\n            return recover(hash, v, r, s);\n        } else if (signature.length == 64) {\n            bytes32 r;\n            bytes32 vs;\n            // ecrecover takes the signature parameters, and the only way to get them\n            // currently is to use assembly.\n            assembly {\n                r := mload(add(signature, 0x20))\n                vs := mload(add(signature, 0x40))\n            }\n            return recover(hash, r, vs);\n        } else {\n            revert(\"ECDSA: invalid signature length\");\n        }\n    }\n\n    /**\n     * @dev Overload of {ECDSA-recover} that receives the `r` and `vs` short-signature fields separately.\n     *\n     * See https://eips.ethereum.org/EIPS/eip-2098[EIP-2098 short signatures]\n     *\n     * _Available since v4.2._\n     */\n    function recover(\n        bytes32 hash,\n        bytes32 r,\n        bytes32 vs\n    ) internal pure returns (address) {\n        bytes32 s;\n        uint8 v;\n        assembly {\n            s := and(\n                vs,\n                0x7fffffffffffffffffffffffffffffffffffffffffffffffffffffffffffffff\n            )\n            v := add(shr(255, vs), 27)\n        }\n        return recover(hash, v, r, s);\n    }\n\n    /**\n     * @dev Overload of {ECDSA-recover} that receives the `v`, `r` and `s` signature fields separately.\n     */\n    function recover(\n        bytes32 hash,\n        uint8 v,\n        bytes32 r,\n        bytes32 s\n    ) internal pure returns (address) {\n        // EIP-2 still allows signature malleability for ecrecover(). Remove this possibility and make the signature\n        // unique. Appendix F in the Ethereum Yellow paper (https://ethereum.github.io/yellowpaper/paper.pdf), defines\n        // the valid range for s in (281): 0 < s < secp256k1n  2 + 1, and for v in (282): v  {27, 28}. Most\n        // signatures from current libraries generate a unique signature with an s-value in the lower half order.\n        //\n        // If your library generates malleable signatures, such as s-values in the upper range, calculate a new s-value\n        // with 0xFFFFFFFFFFFFFFFFFFFFFFFFFFFFFFFEBAAEDCE6AF48A03BBFD25E8CD0364141 - s1 and flip v from 27 to 28 or\n        // vice versa. If your library also generates signatures with 0/1 for v instead 27/28, add 27 to v to accept\n        // these malleable signatures as well.\n        require(\n            uint256(s) <=\n                0x7FFFFFFFFFFFFFFFFFFFFFFFFFFFFFFF5D576E7357A4501DDFE92F46681B20A0,\n            \"ECDSA: invalid signature 's' value\"\n        );\n        require(v == 27 || v == 28, \"ECDSA: invalid signature 'v' value\");\n\n        // If the signature is valid (and not malleable), return the signer address\n        address signer = ecrecover(hash, v, r, s);\n        require(signer != address(0), \"ECDSA: invalid signature\");\n\n        return signer;\n    }\n\n    /**\n     * @dev Returns an Ethereum Signed Message, created from a `hash`. This\n     * produces hash corresponding to the one signed with the\n     * https://eth.wiki/json-rpc/API#eth_sign[`eth_sign`]\n     * JSON-RPC method as part of EIP-191.\n     *\n     * See {recover}.\n     */\n    function toEthSignedMessageHash(bytes32 hash)\n        internal\n        pure\n        returns (bytes32)\n    {\n        // 32 is the length in bytes of hash,\n        // enforced by the type signature above\n        return\n            keccak256(\n                abi.encodePacked(\"\\x19Ethereum Signed Message:\\n32\", hash)\n            );\n    }\n\n    /**\n     * @dev Returns an Ethereum Signed Typed Data, created from a\n     * `domainSeparator` and a `structHash`. This produces hash corresponding\n     * to the one signed with the\n     * https://eips.ethereum.org/EIPS/eip-712[`eth_signTypedData`]\n     * JSON-RPC method as part of EIP-712.\n     *\n     * See {recover}.\n     */\n    function toTypedDataHash(bytes32 domainSeparator, bytes32 structHash)\n        internal\n        pure\n        returns (bytes32)\n    {\n        return\n            keccak256(\n                abi.encodePacked(\"\\x19\\x01\", domainSeparator, structHash)\n            );\n    }\n}\n",
  "sourcePath": "/home/jl/Workspace/Maryam/FE/src/truffle/contracts/FNFT.sol",
  "compiler": {
    "name": "solc",
    "version": "0.8.4+commit.c7e474f2.Emscripten.clang"
  },
  "schemaVersion": "3.4.1",
  "updatedAt": "2021-07-15T04:09:15.868Z",
  "networkType": "ethereum",
  "devdoc": {
    "kind": "dev",
    "methods": {},
    "version": 1
  },
  "userdoc": {
    "kind": "user",
    "methods": {},
    "version": 1
  }
}